{
  "_format": "hh-sol-artifact-1",
  "contractName": "TradeExecutor",
  "sourceName": "contracts/TradeExecutor.sol",
  "abi": [
    {
      "inputs": [],
      "stateMutability": "nonpayable",
      "type": "constructor"
    },
    {
      "anonymous": false,
      "inputs": [
        {
          "indexed": false,
          "internalType": "uint256",
          "name": "tradeId",
          "type": "uint256"
        },
        {
          "indexed": false,
          "internalType": "address",
          "name": "user",
          "type": "address"
        }
      ],
      "name": "TradeApproved",
      "type": "event"
    },
    {
      "anonymous": false,
      "inputs": [
        {
          "indexed": false,
          "internalType": "uint256",
          "name": "tradeId",
          "type": "uint256"
        },
        {
          "indexed": false,
          "internalType": "address",
          "name": "user",
          "type": "address"
        },
        {
          "indexed": false,
          "internalType": "string",
          "name": "token",
          "type": "string"
        },
        {
          "indexed": false,
          "internalType": "uint256",
          "name": "amount",
          "type": "uint256"
        },
        {
          "indexed": false,
          "internalType": "bool",
          "name": "isBuy",
          "type": "bool"
        }
      ],
      "name": "TradeExecuted",
      "type": "event"
    },
    {
      "anonymous": false,
      "inputs": [
        {
          "indexed": false,
          "internalType": "uint256",
          "name": "tradeId",
          "type": "uint256"
        },
        {
          "indexed": false,
          "internalType": "address",
          "name": "user",
          "type": "address"
        },
        {
          "indexed": false,
          "internalType": "string",
          "name": "token",
          "type": "string"
        },
        {
          "indexed": false,
          "internalType": "uint256",
          "name": "amount",
          "type": "uint256"
        },
        {
          "indexed": false,
          "internalType": "bool",
          "name": "isBuy",
          "type": "bool"
        }
      ],
      "name": "TradeRequested",
      "type": "event"
    },
    {
      "inputs": [
        {
          "internalType": "uint256",
          "name": "tradeId",
          "type": "uint256"
        }
      ],
      "name": "approveTrade",
      "outputs": [],
      "stateMutability": "nonpayable",
      "type": "function"
    },
    {
      "inputs": [
        {
          "internalType": "uint256",
          "name": "tradeId",
          "type": "uint256"
        }
      ],
      "name": "executeTrade",
      "outputs": [],
      "stateMutability": "nonpayable",
      "type": "function"
    },
    {
      "inputs": [],
      "name": "owner",
      "outputs": [
        {
          "internalType": "address",
          "name": "",
          "type": "address"
        }
      ],
      "stateMutability": "view",
      "type": "function"
    },
    {
      "inputs": [
        {
          "internalType": "string",
          "name": "token",
          "type": "string"
        },
        {
          "internalType": "uint256",
          "name": "amount",
          "type": "uint256"
        },
        {
          "internalType": "bool",
          "name": "isBuy",
          "type": "bool"
        }
      ],
      "name": "requestTrade",
      "outputs": [],
      "stateMutability": "nonpayable",
      "type": "function"
    },
    {
      "inputs": [],
      "name": "tradeCounter",
      "outputs": [
        {
          "internalType": "uint256",
          "name": "",
          "type": "uint256"
        }
      ],
      "stateMutability": "view",
      "type": "function"
    },
    {
      "inputs": [
        {
          "internalType": "uint256",
          "name": "",
          "type": "uint256"
        }
      ],
      "name": "trades",
      "outputs": [
        {
          "internalType": "address",
          "name": "user",
          "type": "address"
        },
        {
          "internalType": "string",
          "name": "token",
          "type": "string"
        },
        {
          "internalType": "uint256",
          "name": "amount",
          "type": "uint256"
        },
        {
          "internalType": "bool",
          "name": "isBuy",
          "type": "bool"
        },
        {
          "internalType": "bool",
          "name": "approved",
          "type": "bool"
        }
      ],
      "stateMutability": "view",
      "type": "function"
    }
  ],
  "bytecode": "0x608060405234801561001057600080fd5b50336000806101000a81548173ffffffffffffffffffffffffffffffffffffffff021916908373ffffffffffffffffffffffffffffffffffffffff160217905550610fac806100606000396000f3fe608060405234801561001057600080fd5b50600436106100625760003560e01c806301663e591461006757806302d2838b146100835780631e6c598e1461009f578063660d15b5146100d35780638da5cb5b146100f1578063c0a3b9491461010f575b600080fd5b610081600480360381019061007c9190610917565b61012b565b005b61009d60048036038101906100989190610917565b61029d565b005b6100b960048036038101906100b49190610917565b6104b3565b6040516100ca959493929190610b41565b60405180910390f35b6100db6105ab565b6040516100e89190610c1b565b60405180910390f35b6100f96105b1565b6040516101069190610b26565b60405180910390f35b610129600480360381019061012491906108b0565b6105d5565b005b60008054906101000a900473ffffffffffffffffffffffffffffffffffffffff1673ffffffffffffffffffffffffffffffffffffffff163373ffffffffffffffffffffffffffffffffffffffff16146101b9576040517f08c379a00000000000000000000000000000000000000000000000000000000081526004016101b090610bdb565b60405180910390fd5b60025481106101fd576040517f08c379a00000000000000000000000000000000000000000000000000000000081526004016101f490610bfb565b60405180910390fd5b600180600083815260200190815260200160002060030160016101000a81548160ff0219169083151502179055507f642ea0b1d63cc70f38e39719b589ae0a9a111ef74ae825093d1574009bdf4e29816001600084815260200190815260200160002060000160009054906101000a900473ffffffffffffffffffffffffffffffffffffffff16604051610292929190610c36565b60405180910390a150565b60025481106102e1576040517f08c379a00000000000000000000000000000000000000000000000000000000081526004016102d890610bfb565b60405180910390fd5b60006001600083815260200190815260200160002090503373ffffffffffffffffffffffffffffffffffffffff168160000160009054906101000a900473ffffffffffffffffffffffffffffffffffffffff1673ffffffffffffffffffffffffffffffffffffffff161461038a576040517f08c379a000000000000000000000000000000000000000000000000000000000815260040161038190610b9b565b60405180910390fd5b8060030160019054906101000a900460ff166103db576040517f08c379a00000000000000000000000000000000000000000000000000000000081526004016103d290610bbb565b60405180910390fd5b7f68b3c00ab871c96a275cf601ad83c64e37732e1c9290ffd762ae518a09bec38e82338360010184600201548560030160009054906101000a900460ff1660405161042a959493929190610cb9565b60405180910390a160016000838152602001908152602001600020600080820160006101000a81549073ffffffffffffffffffffffffffffffffffffffff021916905560018201600061047d919061073b565b60028201600090556003820160006101000a81549060ff02191690556003820160016101000a81549060ff021916905550505050565b60016020528060005260406000206000915090508060000160009054906101000a900473ffffffffffffffffffffffffffffffffffffffff16908060010180546104fc90610e2f565b80601f016020809104026020016040519081016040528092919081815260200182805461052890610e2f565b80156105755780601f1061054a57610100808354040283529160200191610575565b820191906000526020600020905b81548152906001019060200180831161055857829003601f168201915b5050505050908060020154908060030160009054906101000a900460ff16908060030160019054906101000a900460ff16905085565b60025481565b60008054906101000a900473ffffffffffffffffffffffffffffffffffffffff1681565b6040518060a001604052803373ffffffffffffffffffffffffffffffffffffffff16815260200184815260200183815260200182151581526020016000151581525060016000600254815260200190815260200160002060008201518160000160006101000a81548173ffffffffffffffffffffffffffffffffffffffff021916908373ffffffffffffffffffffffffffffffffffffffff160217905550602082015181600101908051906020019061068f92919061077b565b506040820151816002015560608201518160030160006101000a81548160ff02191690831515021790555060808201518160030160016101000a81548160ff0219169083151502179055509050507fbe2fc482929a6e23467ef0fe94d6853fa47bc3e625b7a8f9fd8d5b8f3890f69c60025433858585604051610716959493929190610c5f565b60405180910390a16002600081548092919061073190610e61565b9190505550505050565b50805461074790610e2f565b6000825580601f106107595750610778565b601f0160209004906000526020600020908101906107779190610801565b5b50565b82805461078790610e2f565b90600052602060002090601f0160209004810192826107a957600085556107f0565b82601f106107c257805160ff19168380011785556107f0565b828001600101855582156107f0579182015b828111156107ef5782518255916020019190600101906107d4565b5b5090506107fd9190610801565b5090565b5b8082111561081a576000816000905550600101610802565b5090565b600061083161082c84610d44565b610d13565b90508281526020810184848401111561084957600080fd5b610854848285610ded565b509392505050565b60008135905061086b81610f48565b92915050565b600082601f83011261088257600080fd5b813561089284826020860161081e565b91505092915050565b6000813590506108aa81610f5f565b92915050565b6000806000606084860312156108c557600080fd5b600084013567ffffffffffffffff8111156108df57600080fd5b6108eb86828701610871565b93505060206108fc8682870161089b565b925050604061090d8682870161085c565b9150509250925092565b60006020828403121561092957600080fd5b60006109378482850161089b565b91505092915050565b61094981610da5565b82525050565b61095881610db7565b82525050565b600061096982610d89565b6109738185610d94565b9350610983818560208601610dfc565b61098c81610f37565b840191505092915050565b600081546109a481610e2f565b6109ae8186610d94565b945060018216600081146109c957600181146109db57610a0e565b60ff1983168652602086019350610a0e565b6109e485610d74565b60005b83811015610a06578154818901526001820191506020810190506109e7565b808801955050505b50505092915050565b6000610a24600e83610d94565b91507f4e6f7420796f75722074726164650000000000000000000000000000000000006000830152602082019050919050565b6000610a64601283610d94565b91507f5472616465206e6f7420617070726f76656400000000000000000000000000006000830152602082019050919050565b6000610aa4601683610d94565b91507f4f6e6c79206f776e65722063616e20617070726f7665000000000000000000006000830152602082019050919050565b6000610ae4601083610d94565b91507f496e76616c6964207472616465204944000000000000000000000000000000006000830152602082019050919050565b610b2081610de3565b82525050565b6000602082019050610b3b6000830184610940565b92915050565b600060a082019050610b566000830188610940565b8181036020830152610b68818761095e565b9050610b776040830186610b17565b610b84606083018561094f565b610b91608083018461094f565b9695505050505050565b60006020820190508181036000830152610bb481610a17565b9050919050565b60006020820190508181036000830152610bd481610a57565b9050919050565b60006020820190508181036000830152610bf481610a97565b9050919050565b60006020820190508181036000830152610c1481610ad7565b9050919050565b6000602082019050610c306000830184610b17565b92915050565b6000604082019050610c4b6000830185610b17565b610c586020830184610940565b9392505050565b600060a082019050610c746000830188610b17565b610c816020830187610940565b8181036040830152610c93818661095e565b9050610ca26060830185610b17565b610caf608083018461094f565b9695505050505050565b600060a082019050610cce6000830188610b17565b610cdb6020830187610940565b8181036040830152610ced8186610997565b9050610cfc6060830185610b17565b610d09608083018461094f565b9695505050505050565b6000604051905081810181811067ffffffffffffffff82111715610d3a57610d39610f08565b5b8060405250919050565b600067ffffffffffffffff821115610d5f57610d5e610f08565b5b601f19601f8301169050602081019050919050565b60008190508160005260206000209050919050565b600081519050919050565b600082825260208201905092915050565b6000610db082610dc3565b9050919050565b60008115159050919050565b600073ffffffffffffffffffffffffffffffffffffffff82169050919050565b6000819050919050565b82818337600083830152505050565b60005b83811015610e1a578082015181840152602081019050610dff565b83811115610e29576000848401525b50505050565b60006002820490506001821680610e4757607f821691505b60208210811415610e5b57610e5a610ed9565b5b50919050565b6000610e6c82610de3565b91507fffffffffffffffffffffffffffffffffffffffffffffffffffffffffffffffff821415610e9f57610e9e610eaa565b5b600182019050919050565b7f4e487b7100000000000000000000000000000000000000000000000000000000600052601160045260246000fd5b7f4e487b7100000000000000000000000000000000000000000000000000000000600052602260045260246000fd5b7f4e487b7100000000000000000000000000000000000000000000000000000000600052604160045260246000fd5b6000601f19601f8301169050919050565b610f5181610db7565b8114610f5c57600080fd5b50565b610f6881610de3565b8114610f7357600080fd5b5056fea26469706673582212200cb9d3fa9c7f8231360e97023b5911250de83e0b633159e59065f68bd279935764736f6c63430008000033",
  "linkReferences": {},
  "deployedLinkReferences": {}
}